S01800006275696C642F6D6963617A2F6D61696E2E73726563E5
S11300000C945D000C94BF040C94C9040C94D304A8
S11300100C94DD040C94E7040C94F1040C94FA069B
S11300200C94FB040C947C000C947C000C94630EE4
S11300300C9401100C9489040C949F040C940505F1
S11300400C9478040C94FD0D0C947C000C947C00AE
S11300500C947C000C947C000C947C000C947C002C
S11300600C9494040C947C000C947C000C947C0000
S11300700C947C000C947C000C947C000C947C000C
S11300800C947C000C947C000C947C00FA102A11D3
S1130090571169118E11BE11F1114912B412BA121D
S11300A00B1326132D136613231447145B1497188C
S11300B0F010E21800081C18141011241FBECFEF12
S11300C0D0E1DEBFCDBF11E0A0E0B1E0ECE5FEE39E
S11300D000E00BBF02C007900D92AE30B107D9F714
S11300E012E0AEE0B1E001C01D92A637B107E1F71E
S11300F00E9425190C942D1F0C9400008FB7F894BE
S1130100992708958FBF0895282F9FB7F894E82F53
S1130110FF27E35CFE4F80818F3F81F4E091720200
S1130120E21771F40BC02093610204C0FF27E35C63
S1130130FE4F20832093720220E007C025E005C013
S1130140809161028F3F91F7EECF892F99278FBF5E
S1130150822F992708957FB7F89462B720912301DD
S113016030912401409125015091260106B601FEEB
S11301700FC081B792B7280F311D411D511D2F5F4C
S11301803F4F4F4F5F4F290F311D411D511D04C07B
S1130190260F311D411D511D872F99278FBFCA017D
S11301A0B9010895FC0182819927582F4427818140
S11301B09927482B592BCA01892F9927869586950B
S11301C0837090708230910559F08330910559F015
S11301D0892B19F420E030E008C02CE93FEF05C07A
S11301E022E030E002C028E030E0CA0184E0989FB9
S11301F0812D992711248230910559F0833091057E
S113020059F0892B19F480E090E008C08CE99FEF45
S113021005C082E090E002C088E090E0280F391F1A
S11302202A5F3F4FCF01820F931F0895282F9FB756
S1130230F894662349F0E82FFF27EF50FE4F8081A2
S1130240882311F021E006C0E22FFF27EF50FE4F74
S1130250608320E0892F99278FBF822F99270895E3
S1130260E82F8FB7F894282F332790E0FF27EF501B
S1130270FE4F8081861709F491E02FBF892F9927BB
S11302800895882311F06E9A08956E98089588232E
S113029011F06F9A08956F98089580E00E944101CB
S11302A0BA9ABB98B99AB89A6C9A80E00E944701AE
S11302B06B986A9881E00E944101709A8DB18C7F9D
S11302C08DB908951F93182F81E00E9441011FB931
S11302D0779BFECF8FB199271F9108958F929F929C
S11302E0AF92BF92CF92DF92EF92FF920F931F9340
S11302F0CF93DF938FB7F8949927C0906D02D09075
S11303006E028090EA019090EB01C091B601D09109
S1130310B7012091200130912101EAE0AE2EB12CE9
S1130320AC0EBD1E2A153B0508F459018FBF74019C
S1130330EC0EFD1E86010C0F1D1F14C0C114D10448
S113034019F0F801808101C080E00E9462018114EB
S1130350910411F0F701808321960894E11CF11CAB
S11303600F5F1F4FC5010197C817D90738F381E004
S11303700E9447019FB7F894C114D10431F0CC0E08
S1130380DD1EF60180818FB901C01FB8D093B7017B
S1130390C093B601892F99278FBF80E090E0DF9149
S11303A0CF911F910F91FF90EF90DF90CF90BF906E
S11303B0AF909F908F9008952FB7F8943327509360
S11303C021014093200190936E0280936D027093FB
S11303D0EB016093EA011092B7011092B6012FBFAE
S11303E0452B29F08FB10E946E01992708958EE064
S11303F00E94840080E090E008958FB7F8949927D4
S11304001092F3018FBF089580E880933B0110920E
S11304108F011092650210926002109257010895A4
S1130420CF93DF93FC0115A6DC019E96ED011B82A0
S11304301A82198280E886A7DF91CF9108952F92BE
S11304403F924F925F926F927F928F929F92AF9260
S1130450BF92CF92DF92EF92FF920F931F93CF93AD
S1130460DF93CDB7DEB729970FB6F894DEBF0FBE82
S1130470CDBF6FB76983F8942090970130909801AD
S11304804090990150909A01662477248824BEE410
S1130490AB2EA3E8BA2ECC24DD24EE24FF2400E006
S11304A010E0222D332D442D552D662D772D882DCA
S11304B090E00E94EC1A2A833B834C835D836E8315
S11304C07F8388879987822E932EA42EB52E2401AC
S11304D0350100E20E94EA1BA22EB32EC42ED52EB3
S11304E0A301920156954795379527952A0D3B1DF3
S11304F04C1D5D1D57FF05C05F772F5F3F4F4F4F6A
S11305005F4F209397013093980140939901509342
S11305109A01E9818E2F99278FBFCA01B9012996C3
S11305200FB6F894DEBF0FBECDBFDF91CF911F9100
S11305300F91FF90EF90DF90CF90BF90AF909F907E
S11305408F907F906F905F904F903F902F90089581
S11305508FB7F8946091BA017091BB012CB53DB589
S113056006B602FE04C06F5F7F4F2CB53DB59927D8
S11305708FBF88279927CB017727662744275527DC
S1130580622B732B842B952B0895EF92FF920F937C
S11305901F930E94A8027B018C012091A501309138
S11305A0A6014091A7015091A80180919E019091CC
S11305B09F01A091A001B091A101820F931FA41FDC
S11305C0B51FE216F3060407150730F082179307E8
S11305D0A407B50758F005C082179307A407B50709
S11305E0E0F5E816F9060A071B07B8F59C01AD010A
S11305F02E193F09400B510B213060E8360760E0AB
S1130600460760E0560768F180E090E8A0E0B0E0BB
S1130610E80EF91E0A1F1B1FE092A501F092A60125
S11306200093A7011093A80180E090E8AFEFBFEF1B
S1130630E80EF91E0A1F1B1F20503048404050404E
S113064020939E0130939F014093A0015093A101F8
S113065020E030E840E050E014C020E030E040E02A
S113066050E08093A5019093A601A093A701B093B5
S1130670A80110929E0110929F011092A001109265
S1130680A101A901B7012CB53DB5C9018E199F0976
S113069003968417950720F0B9016D5F7F4F02C060
S11306A0640F751F6115710511F461E070E061500C
S11306B070407BBD6ABD80E186BF87B7806187BF1C
S11306C01F910F91FF90EF9008950F931F930FB711
S11306D0F89411276093A5017093A6018093A70154
S11306E09093A80120939E0130939F014093A00111
S11306F05093A1010E94C5020FBF1F910F9108954D
S113070097B79F7D97BF90E296BF882319F08EB567
S1130710806402C08EB58F7B8EBD87B7806287BF31
S113072080E090E00895DF92EF92FF920F931F9381
S11307308FB7F894282F3327D22E91B782B746B7B4
S1130740981711F041FF02C02FBF6AC08091B50114
S11307508823E1F10E94AB00E090ED01F090EE01FE
S11307600091EF011091F00120913701309138018F
S11307704091390150913A016E197F09800B910B18
S1130780621773078407950720F01092B50171E092
S11307901EC02E0D3F1D401F511F809123019091BB
S11307A02401A0912501B0912601281B390B4A0B85
S11307B05B0B273E31054105510540F4822F223061
S11307C010F070E005C070E082E002C070E086EED8
S11307D0682F615000B601FCFDCF82B7681709F499
S11307E06F5F2091230130912401409125015091A4
S11307F02601DA01C9010196A11DB11D860F911DC3
S1130800A11DB11D82179307A407B50710F4622F29
S1130810609561BFDFBE772319F085E00E948400F4
S11308201F910F91FF90EF90DF900895AFB7F89468
S1130830BB27E1E0E093B5016093ED017093EE0115
S11308408093EF019093F0012093370130933801A6
S11308504093390150933A01AFBF0E949303089526
S1130860CF93DF93FC01DC011196ED01298133273D
S1130870322F2227818199278062282B392B2183CB
S1130880232F3327298380E090E0DF91CF910895CF
S1130890AF92BF92CF92DF92EF92FF920F931F938A
S11308A0CF93DF93CDB7DEB728970FB6F894DEBFAA
S11308B00FBECDBF20E070E0E0910001F091010196
S11308C032E14DE65CE46FE4809101019E2F2896AD
S11308D00FB6F894DEBF0FBECDBFDF91CF911F914D
S11308E00F91FF90EF90DF90CF90BF90AF9008955D
S11308F01F920F920FB60F9211248F9383B783BF69
S113090000B600FCFDCF8F910F900FBE0F901F908B
S1130910189578941F920F920FB60F9211240F908E
S11309200FBE0F901F90189578941F920F920FB6D8
S11309300F9211240F900FBE0F901F90189578946A
S11309401F920F920FB60F9211242F933F938F9300
S11309509F932FB7F89433278091BA019091BB01EC
S113096001969093BB018093BA012FBF9F918F9101
S11309703F912F910F900FBE0F901F9018951F92CB
S11309800F920FB60F9211240F900FBE0F901F906D
S113099018951F920F920FB60F9211240F900FBE4D
S11309A00F901F9018951F920F920FB60F9211245B
S11309B00F900FBE0F901F9018951F920F920FB6B5
S11309C00F9211240F900FBE0F901F9018951F9235
S11309D00F920FB60F9211240F900FBE0F901F901D
S11309E018951F920F920FB60F9211240F900FBEFD
S11309F00F901F9018951F920F920FB60F9211240B
S1130A000F900FBE0F901F9018951F920F920FB664
S1130A100F9211242F933F934F935F936F937F9380
S1130A208F939F93AF93BF93EF93FF9383B783BF4A
S1130A3000B600FCFDCF81B799270196AA27BB27F2
S1130A4020912301309124014091250150912601E8
S1130A50280F391F4A1F5B1F209323013093240161
S1130A60409325015093260178940E949303FF91AB
S1130A70EF91BF91AF919F918F917F916F915F9112
S1130A804F913F912F910F900FBE0F901F9018958B
S1130A900F931F93CF93DF93182F8FB7F894C82F1A
S1130AA0DD270C2F61E080E00E941601882321F0ED
S1130AB0CFBF85E090E024C0809105018823A1F494
S1130AC080911501823081F409C082E08093150180
S1130AD0109205010E944D01B89AC098109302012A
S1130AE080E00FBF99270CC080911501882369F31A
S1130AF08FB7F89499271092F1018FBF81E0F1CF5D
S1130B00DF91CF911F910F910895EF920F931F934F
S1130B10AE2D99E0899FF0011124E354FE4F4083E8
S1130B205183628373830483158326833783A1707F
S1130B3080858E7F8A2B8260808786E00E94840075
S1130B401F910F91EF9008950F931F93182F0FB7D4
S1130B50F89461E080E00E941601882371F51093F7
S1130B600201809105018823A9F580911501823045
S1130B7089F58DE00CC00E944D01809115018823F8
S1130B8049F481E080931501109258018FE00E948E
S1130B9084002AC08091A2018F3F31F5E0910401C5
S1130BA0EE2311F11CC01092030104C0FF27EE557F
S1130BB0FE4F10821092040117C081E090E002C041
S1130BC0880F991F1A95E2F720911401282B20937E
S1130BD014010AC0809115018823E1F6CCCF8091DD
S1130BE003018F3F19F7DFCF802F99278FBF80E054
S1130BF090E01F910F9108951F9383E00E94480590
S1130C009927182F882319F083E00E94A405812FC7
S1130C1099271F910895CF92DF92EF92FF920F933D
S1130C201F93CF93DF938C01F62E6A01E22E8FB7C8
S1130C30F894C82FDD2760E080E00E94300188230B
S1130C4021F0CFBF80E090E01EC0CFBF0F0D111D7B
S1130C50802F80680E946201F82E16950795802FD8
S1130C60807C0E9462010E2D0AC0EE2DFF27E01B3E
S1130C70F109EC0DFD1D80810E94620101500023E9
S1130C80A1F78F2D9927DF91CF911F910F91FF909D
S1130C90EF90DF90CF900895CF93DF93CDB7DEB779
S1130CA02C970FB6F894DEBF0FBECDBF8FB7F89464
S1130CB0282FAE014F5F5F4FDA01E9EFF1E088E0E2
S1130CC001900D928150E1F78091900190919101F2
S1130CD08987892F99278A878091A9019091AA01F0
S1130CE08B87892F99278C872FBF2CE060E080E6C3
S1130CF091E00E940B062C960FB6F894DEBF0FBE4F
S1130D00CDBFDF91CF9108951F93CF93DF93182F19
S1130D108FB7F894C82FDD2760E080E00E9430018F
S1130D20882321F0CFBF80E090E005C0CFBF812FA2
S1130D300E9462019927DF91CF911F910895EF924C
S1130D40FF920F931F93CF93DF93182F7B01042FF0
S1130D508FB7F894C82FDD2760E080E00E9430014F
S1130D60882321F0CFBF80E090E014C0CFBF10648F
S1130D70812F99279093AE018093AD010E94620167
S1130D80182F402F5527B70180E090E00E94DC0126
S1130D90812F9927DF91CF911F910F91FF90EF90B1
S1130DA00895C09860911C0170911D0141E08FE38A
S1130DB00E949F06089582E090E0909352018093F0
S1130DC0510181E080938F0120E030E080910201A5
S1130DD0843011F421E030E0232B29F484E00E94D4
S1130DE04805882319F40E94D106089584E00E94DE
S1130DF0A40508951F920F920FB60F9211242F93FA
S1130E003F934F935F936F937F938F939F93AF938E
S1130E10BF93EF93FF9380915101909152010197F9
S1130E2049F482E090E090935201809351010E9432
S1130E30DB0605C0809157018F5F80935701FF91B6
S1130E40EF91BF91AF919F918F917F916F915F913E
S1130E504F913F912F910F900FBE0F901F901895B7
S1130E601F9380911401882309F04BC01091020153
S1130E701F3F09F046C060E00E943001882309F456
S1130E8040C081E08093020280913C018823E1F11B
S1130E901092020285E090E045C0923069F5C09A54
S1130EA08091030120E030E08F3F11F421E030E035
S1130EB0232BE9F4109305018F3F19F42FEF30E051
S1130EC00DC0282F3327F901EE55FE4F8081809302
S1130ED003018F3F11F410930401108320935801F0
S1130EE081E0809315018FE00E94840005C0109377
S1130EF005011092150111C080911501882369F034
S1130F000FC081E090E00EC0809105019091150121
S1130F10882319F2923021F0EFCF80E00E94410142
S1130F2080E090E01F9108951F93CF93DF939FB7C4
S1130F30F894C92FDD271C2F90910201981721F0F6
S1130F40CFBF81E090E03AC08FEF809302013091EF
S1130F5014013323F1F48FB7F89499271092F10117
S1130F608FBF0E943007CFBF11C02093020181E0E0
S1130F7090E002C0880F991F4A95E2F780953823C4
S1130F80309314018DE00E9484001FBF80E090E044
S1130F9015C080E065E0E32FFF270E946E1E292F15
S1130FA0492F5527CF01042E02C0959587950A94A1
S1130FB0E2F780FDDACF822F8F5FEFCFDF91CF9101
S1130FC01F9108951F93CF93DF938FB7F894C82F81
S1130FD0DD271C2F8091510190915201892B29F416
S1130FE084E00E949407CFBF1EC010928F018091AD
S1130FF05701882311F0B79904C00E9908C08823BB
S113100019F08150809357010E94DB060BC081E0E8
S113101090E090935201809351011092570184E023
S11310200E9494071FBFDF91CF911F9108950E94E2
S11310300402C09AC09888E00E94840688E00E9456
S11310408406C09A84E00E9494070E94E2070895EF
S1131050FF920F931F93CF93DF93F82E8B018FB7DB
S1131060F894C82FDD2760E080E00E9430018823D7
S113107021F0CFBF80E090E00CC0CFBF8F2D0E9445
S11310806201812F99270E946201802F0E946201D0
S11310909927DF91CF911F910F91FF9008951F938E
S11310A01FB7F89480915601882319F460E070E02A
S11310B009C060E080916C02882309F461E081E05A
S11310C06827772780919201882319F480E090E0C3
S11310D00AC090E08091F801882309F491E081E04E
S11310E09827892F9927762F6627770F770F770F01
S11310F0B4E0880F991FBA95E1F7826E9262682B6B
S1131100792B81E10E942808812F99278FBF1F9195
S113111008958FB7F8949927609101028FBF85E0F5
S1131120689FB0011124625D7E4F706488E10E9463
S113113028080895EF92FF921F93CF93DF93E090D6
S11311409501F0909601F70182A59927182F88231D
S113115009F41FE1C09880915501811749F0612F6E
S113116077276F717070606E706885E10E9428083F
S113117010935501F70110818FB7F894C82FDD271C
S113118060E080E00E943001882311F0CFBF12C0DC
S1131190CFBF8EE390E09093AE018093AD018EE3D8
S11311A00E9462011150412F552760E070E0C70191
S11311B00E94DC01DF91CF911F91FF90EF90089581
S11311C00F931F93CF93DF93EC010FB7F89411277C
S11311D00E94D200FC018FE380830FBF109268024B
S11311E01092670261E082E00E941601882319F0E0
S11311F085E090E072C0809107028F5F80930702C0
S113120081508B838FB7F894082F112762E081E017
S11312100E943001882329F40FBF0E94FD0181E060
S11312205BC08FB7F894992724E02093F2018FBF15
S1131230D093B401C093B3010FBFFE0131968181F5
S113124029819927982F88273327822B932B807203
S11312509C7C8983892F992781832981982F8827CA
S113126033272164822B932B8983892F99278183A8
S11312701CA618A619A619AA18AA1FA680E88EA744
S113128061E06093F5014091B3015091B4018FB7CF
S1131290F894282F332780911601909117018830F4
S11312A0910511F0019711F02FBF15C082E090E075
S11312B090931701809316016093730250939601E3
S11312C040939501109222012FBF0E94FC058823B0
S11312D011F40E949A0880E09927DF91CF911F9121
S11312E00F910895CF93DF93DA01422F2D3118F037
S11312F082E090E05EC0ED018B876E83872F992793
S11313008F832FB7F89433278091900190919101A6
S11313102FBFFD018483892F992785832FB7F894E4
S1131320332780910601909107012FBF8887892F69
S1131330992789873196818129819927982F882730
S1131340332720643868822B932B8983892F99272C
S11313508183435F4C934D5080910901882359F058
S113136010920901642FCD010E94E0089927282FCB
S11313708823A9F417C0842F99279093B2018093EE
S1131380B101B0931B01A0931A0181E10E94840072
S113139080910901882349F489E090E00AC08FEF25
S11313A080930901822F992704C010929B0180E049
S11313B090E0DF91CF910895CF93DF93FB01DB01A0
S11313C016968683892F9927ED01898386E0838782
S11313D08091B8019091B901892B19F085E090E0D2
S11313E02BC07093B9016093B801435F40834D50A3
S11313F080910C01882319F480E090E01DC083855E
S1131400ED0169817727762F662726813327622BA2
S1131410732B10920C01242FAF010E94720999279B
S1131420282F882339F081E080930C011092B901B0
S11314301092B801822F9927DF91CF9108951F93BD
S1131440182F81E090E09093170180931601109279
S11314503C010E9430078FB7F8949927109310012C
S11314608FBF89E00E9484001F910895EF920F932B
S11314701F938A55914009F042C0809100019091D8
S11314800101892BD1F110920E0137C080918601A0
S1131490909166018823A1F0923019F410920E0104
S11314A02EC0953061F510921F0110921E0110920A
S11314B09401109293011092F7011092F6011FC04B
S11314C0933069F40E94AB00AB01BC0131E0E32E20
S11314D000ED17E020E030E083E00E948505809174
S11314E06601823011F40E94840080916601853087
S11314F031F483E00E94840002C0662339F21F9114
S11315000F91EF9008950F931F93CF93DF93182FAC
S1131510EB01042FE82FFF27EE0FFF1FE854FE4FC7
S11315201182108210920C01E091B801F091B9017E
S1131530309721F08091660280FF0EC081E0809395
S11315400C0103C083E10E9484001123B9F4602FCD
S1131550CE010E94360A12C020812D5033276781A4
S11315607727762F662786819927682B792BAF01F9
S113157083850E947209882341F3E4CFDF91CF91E0
S11315801F910F9108959B0180910C01882349F4C8
S11315906091B8017091B9016217730711F40E9448
S11315A0830A0895AF92BF92CF92DF92EF920F9386
S11315B01F935B016C010E94AB00AB01BC01E1E035
S11315C0EE2E9601850180E00E9485051F910F9102
S11315D0EF90DF90CF90BF90AF900895AF92BF92FD
S11315E0CF92DF92EF92FF920F931F93CF93DF93EB
S11315F05B016C01C0E0D0E0EDEBF1E0608561FFE0
S1131600BDC02081318142815381E480F58006810F
S11316101781D601C501821B930BA40BB50B8E1544
S11316209F05A007B10708F4A9C060FF03C06D7F40
S1131630608708C02E0D3F1D401F511F208331833A
S113164042835383C13009F478C0C13038F0C230CA
S113165009F47DC0C33009F097C07BC00E941F020B
S113166088279927609303027093040280930502EC
S1131670909306020E941F027B018C016091030279
S113168070910402809105029091060228E431E7EA
S113169040E050E00E94A11E68517C4F8F4F9F4F45
S11316A060930302709304028093050290930602F0
S11316B0C70169E070E00E947A1EFC013196F09344
S11316C03601E093350160910F01262F3327A901DC
S11316D04E0F5F1F4535510520F46E0F60930F01C7
S11316E021C0CA01855590400F9728F46E0F60936E
S11316F00F0180E015C044365105A0F080911E0111
S113170090911F01280F391F2E0F3F1F2456304080
S113171030931F0120931E0184E680930F0181E022
S11317200E9484006091030270910402809105027A
S1131730909106020E94D20A27C080919C01809356
S1131740BC018091A3018093640282E014C084E010
S113175012C08091930190919401892B59F4809146
S1131760F6019091F701892B29F410921F01109230
S11317701E010AC083E00E94840006C021963996A7
S1131780C530D10509F03ACF86E00E948400DF918C
S1131790CF911F910F91FF90EF90DF90CF90BF906A
S11317A0AF900895CF92DF92EF92FF920F931F9321
S11317B0CFB6F894DD240E941F02DC01CB0166E45D
S11317C070E00E947A1EFBE0EF2EF12CE80EF91E69
S11317D0F0927002E0926F020E94A8020027112783
S11317E0A80197010E946503CFBE1F910F91FF903E
S11317F0EF90DF90CF9008951F93CF93DF938FB72F
S1131800F894C82FDD271C2F8091160190911701A1
S11318100897C9F489E00E94840683E00E94940733
S1131820C09A81E090E090931701809316018FB7DE
S1131830F894992723E0209310018FBF89E00E9438
S11318408400CFBF30C0C09880917302882311F008
S113185085E001C084E00E94840683FD09C080E025
S11318600E94840683FF04C085E090E020E003C06A
S113187083E090E021E09093170180931601C09AD1
S11318801FBF222341F01092220183E00E9494079B
S11318900E94D20B08C00E94A80220E431E040E07C
S11318A050E00E946503DF91CF911F910895EF925C
S11318B0FF920F931F93CF93DF938B018091AD0120
S11318C09091AE0186FF40C18F7B8F3309F08EC1AA
S11318D0C0911C01D0911D015881509353018091F6
S11318E05101909152018530910509F443C086302D
S11318F0910509F48AC0029709F01FC185E090E0C0
S1131900909352018093510140913B01852F992777
S11319100196242F3327281739074CF1B79906C0AD
S11319200E9904C0451B415040933B014091530123
S11319304A32E8F44423A1F0BE016F5F7F4F483080
S113194018F047E050E007C086E090E09093520121
S113195080935101552780E090E00E94DC0146C14C
S113196010928F01C09A84E00E949407E3C00E9401
S113197017083CC186E090E0909352018093510196
S113198080919201882309F439C08091F801882359
S1131990A9F5898185FF32C08F814E812FB7F894D4
S11319A033276091A9017091AA012FBF9927982F1D
S11319B088275527842B952B8617970759F08F81F5
S11319C02E819927982F88273327822B932B8F5F7B
S11319D09F4FA1F489818770813081F4C09AC098A7
S11319E08AE00E948406C09AC098409153014750EF
S11319F02896BE018FE30E949F06F8C040915301D0
S1131A00475055272896BE01A6CFC09A809157010A
S1131A10882339F484E00E94940780915701882335
S1131A2011F0B7990AC00E9B08C0909160029923E7
S1131A3021F0809153018B3038F480911C019091F6
S1131A401D010E9410023DC0913001F5E091650234
S1131A50FF27EE0FFF1FEE0FFF1FE45FFD4F2081F6
S1131A60318142815381E0911C01F0911D0121AB30
S1131A70BB27A52F942F832F80ABCA01AA27BB278E
S1131A8087A7252F33274427552726A7809165024A
S1131A909927019668E070E00E948E1E809365028B
S1131AA080916002815080936002882351F080917C
S1131AB01C0190911D010E94100210926502109267
S1131AC0600280915301FE01E80FF11D808187FFC0
S1131AD031C0012B79F169816770E0911C01F091AB
S1131AE01D01623019F5A0919501B09196011097EE
S1131AF009F180911601909117010797D9F4ED012E
S1131B009B8183819817B1F487B78F7E87BF9081BB
S1131B1081E08CA7E90FF11D8291319688A780811D
S1131B208F7789A780E00E941F0A04C0613011F4F6
S1131B3080E12AC00E94E20759C010928F01C09A26
S1131B4084E00E94940752C08E3309F04FC0C09ABB
S1131B5080911601909117010897C9F4C09889E003
S1131B600E948406C09A83E00E94940781E090E07A
S1131B7090931701809316018FB7F894992723E067
S1131B80209310018FBF89E00E9484002FC08091B0
S1131B907302882349F484E090E0909317018093C2
S1131BA016010E94FC0B22C083E00E94940783E08C
S1131BB090E090931701809316010E941F02DC01AC
S1131BC0CB0166E371E00E947A1EABE0EA2EF12CB1
S1131BD0E80EF91EF0923401E09233010E94A8024B
S1131BE000271127A80197010E946503DF91CF9177
S1131BF01F910F91FF90EF9008951F920F920FB6CF
S1131C000F9211242F933F934F935F936F937F937E
S1131C108F939F93AF93BF93EF93FF932FB1E09173
S1131C20EA01F091EB01309739F08091B60190917F
S1131C30B701E80FF91F20838091B6019091B70195
S1131C4001969093B7018093B60180E00E9447010A
S1131C5040912001509121018091B6019091B701EA
S1131C608417950718F40E946E011CC06091EA0164
S1131C707091EB0180916D0290916E021092EB01D4
S1131C801092EA0110926E0210926D0210922101DC
S1131C90109220011092B7011092B6012FB120E0EA
S1131CA00E94570CFF91EF91BF91AF919F918F913B
S1131CB07F916F915F914F913F912F910F900FBE44
S1131CC00F901F90189578941F920F920FB60F9251
S1131CD011242F923F924F925F926F927F928F9234
S1131CE09F92AF92BF92CF92DF92EF92FF920F93A7
S1131CF01F932F933F934F935F936F937F938F9390
S1131D009F93AF93BF93CF93DF93EF93FF93C6B5A6
S1131D10D7B58FB7F894282E0E94A8029B012C1BDC
S1131D203D0B442755272B013C01421A530A640AF0
S1131D30750A80911601909117018530910521F063
S1131D40069709F0E0C0BFC086E090E090931701C9
S1131D508093160131E0332E30928E0110921801D7
S1131D6080E00E948003E0919501F091960141AAE0
S1131D70BB27A72D962D852D80ABC301AA27BB2792
S1131D8087A7872D9927AA27BB2786A7E0919501C6
S1131D90F091960185A5882309F484C0608165507B
S1131DA077274F01860E971EF4012081E1808281FE
S1131DB0A3809927AA27BB27BA2FA92F982F882752
S1131DC0332744275527522F442733272227FF241C
S1131DD0002711278701FF24EE242E293F29402BB9
S1131DE0512BBB24CC24DD242A293B294C295D29F1
S1131DF0822B932BA42BB52B84199509A609B7091B
S1131E008383292F3A2F4B2F552722839D01442763
S1131E10552721838B2F9927AA27BB278083C09816
S1131E2024E0A40180E090E00E940B06C09AF40133
S1131E302081E1808281A3809927AA27BB27BA2F1A
S1131E40A92F982F8827332744275527522F442713
S1131E5033272227FF24002711278701FF24EE249C
S1131E602E293F29402B512BBB24CC24DD242A29A5
S1131E703B294C295D29822B932BA42BB52B840D54
S1131E80951DA61DB71D8383292F3A2F4B2F552748
S1131E9022839D014427552721838B2F9927AA2725
S1131EA0BB278083E0919501F0919601818185FFA4
S1131EB002C030923C0183E00E94940787B78F7E72
S1131EC087BF84997AC010928E0181E00E948003BA
S1131ED0E0919501F0919601818185FF0FC087E023
S1131EE090E090931701809316010E94A80220E0CD
S1131EF031E040E050E00E94650303C080E00E94AE
S1131F001F0A849B5AC080911801882391F58091FF
S1131F108E01882371F511E010938E010E948003D5
S1131F2080B320916002283098F4E0916502E20FBA
S1131F30FF27E770F070EE0FFF1FEE0FFF1FE45F47
S1131F40FD4F40825182628273822F5F2093600230
S1131F5010931801D093B001C093AF0184992DC0A0
S1131F60992764E0969587956A95E1F7182F117083
S1131F7001C010E080918E018130F9F410928E013D
S1131F800E948003109218011123B9F48091AF01CB
S1131F909091B001C81BD90B2A9778F48091600204
S1131FA0882319F08150809360028091950190916B
S1131FB09601009711F00E9410022FBEFF91EF913D
S1131FC0DF91CF91BF91AF919F918F917F916F914D
S1131FD05F914F913F912F911F910F91FF90EF903F
S1131FE0DF90CF90BF90AF909F908F907F906F9035
S1131FF05F904F903F902F900F900FBE0F901F90C7
S1132000189578941F920F920FB60F9211241F9374
S11320102F933F934F935F936F937F938F939F93EC
S1132020AF93BF93EF93FF9387B78F7E87BF789467
S11320301FB7F89480919E0190919F01A091A001F7
S1132040B091A1010097A105B10509F051C080919B
S11320501601909117018530910561F18630910543
S113206030F48330910549F0049781F51AC0873024
S11320709105F1F0089751F514C0869B0FC084E0D8
S113208090E090931701809316010E94A80227E024
S113209030E040E050E00E94650318C00E94D20B7B
S11320A015C00E94FC05882389F40E94FC0B0EC015
S11320B080E00AC089E00E94840681E00E948003D7
S11320C083E00E94940787E00E941F0A8091110117
S11320D090911201019771F482E090E090931201C3
S11320E080931101DE98DE9A80E00E94A40502C06C
S11320F00E94C502812F99278FBFFF91EF91BF9155
S1132100AF919F918F917F916F915F914F913F918B
S11321102F911F910F900FBE0F901F90189561E0A3
S113212081E00E9416018823E9F48FB7F894282FE0
S113213033278091110190911201892B11F02FBF47
S113214020C081E090E090931201809311012FBF91
S1132150DD9A0E94A80224E130E040E050E00E94B1
S113216065030FC062E081E00E943001882319F00A
S113217089E090E0089561E081E00E9430018823C5
S113218019F080E090E0089585E090E008952F92A2
S11321903F924F925F926F927F928F929F92AF92F3
S11321A0BF92CF92DF92EF92FF920F931F93CF9340
S11321B0DF93CDB7DEB7E0970FB6F894DEBF0FBE5E
S11321C0CDBFE82FFF27E431F10510F00C94EF1890
S11321D0EA5BFF4FEE0FFF1F0590F491E02D099489
S11321E080916602882311F40C94EF1890E011E0BA
S11321F00C94C01811E01093660180910001909135
S1132200010180936801892F992780936701809148
S1132210BC01992780936A0110926901809164023C
S1132220992780936C0110926B0180910E01882391
S113223011F00C94EF1849E06AE571E080E090E059
S11322400E94DC09882311F00C94EF1810930E01FE
S11322500C94EF1883E080936601809100019091C3
S1132260010180936801892F9927809367018091E8
S1132270BC01992780936A011092690180916402DC
S1132280992780936C0110926B0180910E01882331
S113229011F00C94EF1849E06AE571E08FEF9FEFBD
S11322A00E94DC09882311F00C94EF1863C082E0CB
S11322B0809366018AE591E00E94300449E06AE572
S11322C071E080916A0290916B020E94DC090C9487
S11322D0EF1885E08093660180911E0190911F01A3
S11322E080936E01892F992780936D018AE591E08F
S11322F00E94300480910E01882311F00C94EF1891
S113230049E06AE571E080919301909194010E9403
S1132310DC09882311F00C94EF182CC084E080931E
S11323206601809100019091010180936801892FD9
S11323309927809367018091BC01992780936A0152
S11323401092690180916402992780936C01109224
S11323506B0180910E01882309F041C749E06AE5C9
S113236071E080916A0290916B020E94DC098823DB
S113237009F035C781E080930E0131C78091540183
S1132380882361F5209108023091090240910A02E4
S113239050910B02EFB7F894FF276091ED01709113
S11323A0EE018091EF019091F001E0903701F090FF
S11323B038010091390110913A016E0D7F1D801F83
S11323C0911FEFBF209308023093090240930A0241
S11323D050930B02109254010E9416040E94AB0009
S11323E043C00E94AB005B016C018FB7F89499273E
S11323F01092B5018FBF6FEFE62E6FEFF62E6FEFE1
S1132400062F6FE7162F60E0EDEBF1E0808581FF8A
S11324101CC080819181A281B381A6019501281BF2
S1132420390B4A0B5B0BDA01C901248135814681E2
S11324305781281B390B4A0B5B0B2E153F054007B0
S113244051071CF479018A0161E0399631E0EA3ED2
S1132450F307E1F6662309F4C2C61E141F0410062E
S113246011062CF0C601B5010E94EE0AB8C6E0922E
S11324700802F092090200930A0210930B0281E011
S113248080935401A8019701C601B5010E94160466
S1132490A6C60FB7F894112781E00E94800351E08B
S11324A0E52EF12CF0921701E0921601109218011A
S11324B010923C01109255010FBF0FB7F8941127E9
S11324C00E940402F0925201E092510110928F0195
S11324D089B78F7B89BF80E488BF8AB780628ABF4F
S11324E08AB78F7E8ABF89B7806489BF0FBF8FB7D1
S11324F0F894082F112780911101909112010497EB
S113250019F483E00E9484060FBF0FB7F8941127D3
S1132510C09A80E00E9494070FBF8FB7F894992760
S113252022E02093F2018FBF0E941F02882799277F
S113253028E431E740E050E00E94A11E9B01AC0179
S11325406093030270930402809305029093060241
S11325508091000190910101892B09F440C6CA01C0
S1132560B9010E94D20A3BC68FB7F89499271092FA
S1132570F20171C08FB7F8949927F09010018FBFC2
S113258063E081E00E943001882359F10FB7F89489
S11325901127109217011092160187B78F7E87BFFB
S11325A087B78F7D87BF83E00E949407C09A0FBFCF
S11325B00FB7F894112710925201109251010E9402
S11325C00402C09A89B78F7B89BF0FBF1092120192
S11325D010921101DE98DD98DE9A88E00E94840052
S11325E007C08FB7F894992722E02093F2018FBF98
S11325F00091B3011091B4010E94FD018091670222
S113260090916802892B09F0EAC58FEF8093090144
S11326104F2DB801ACC58FB7F894282F3327122F4C
S113262080917102882309F581E080937102809181
S1132630110190911201049721F481E00E94A405F4
S113264003C08BE00E9484001FBFC9C58FB7F894F4
S11326509927109271028FBFC2C58FB7F894282FA3
S1132660332780911301882311F02FBFB8C52FBFE2
S113267080B3992746E0969587954A95E1F7182FF8
S113268011709091AB018091AC018917D9F01917A1
S1132690C9F484E090E090931201809311018FB704
S11326A0F894992721E0209313018FBF60E070E034
S11326B08DE10E9428080E944C06C09AC09887E0C9
S11326C00E9484001093AC018CE06DC08FB7F89425
S11326D09927109102018FBF123009F467C013309B
S11326E030F4112359F0113009F079C548C0133082
S11326F009F476C0143009F072C5A2C0C0988FB72F
S1132700F894082F112780911101909112010297DA
S113271009F0BBC083E090E0909312018093110113
S113272068E170E08DE10E94280881E08093AB01AC
S11327301092130180B3992736E0969587953A95C0
S1132740E1F7817090708093AC018CE00E9484006A
S113275081E00E9484066FE772E08CE10E94280801
S11327600E9489080E944F0866E57AE287E10E9488
S113277028086FEF70E885E10E94280886C0C09899
S113278086E00E9484060E9489080E944F080E94E5
S11327904C06C09AC09883E00E948406C09A81E0E7
S11327A00E9494078BE00E94840019C5C0988FB7DB
S11327B0F894082F112760E080E00E9430018823FC
S11327C011F00FBF0AC00FBF83E50E94620180E0D1
S11327D00E94620180E00E946201C09A82E02DC0E2
S11327E08FB7F8949927209116018FBF243039F0C0
S11327F0283041F0223001F50E949A08F0C40E946A
S1132800FC0BEDC4C09889E00E948406C09A83E062
S11328100E9494078FB7F894992721E030E0309311
S11328201701209316018FBF8FB7F894992710933F
S113283010018FBF89E0B7CF83E00E949407CFC413
S11328400E94D106CCC40FB7F894112740912001FF
S1132850509121016091EA017091EB0180916D0228
S113286090916E021092EB011092EA0110926E02A6
S113287010926D0210922101109220011092B70162
S11328801092B60120E00E94570C0FBFA8C42FB7C6
S1132890F8943327809158018093050182E0809356
S11328A015012FBF80910501882309F098C4B89AB7
S11328B0C0988DE078CFA0911C01B0911D011C91AE
S11328C09D01210F311DF9018081881F8827881FF0
S11328D0FD0183A7F90180818F77FD0181A7215034
S11328E03040F9018081FD0180A7A0911C01B091C5
S11328F01D01FD0132818FB7F8949927209156016B
S11329008FBF222309F490C0832F9927969587952A
S113291096958795837090708230910541F58781F3
S113292046812FB7F89433276091A9017091AA01C9
S11329302FBF9927982F88275527842B952B8617E7
S1132940970719F481E090E06CC0FD01878126812E
S113295040E050E09927982F88273327822B932B28
S11329608F5F9F4F11F441E050E0CA015AC00397B2
S113297009F0D4C39E012F5F3F4F49EF51E088E037
S1132980FA010190AF01F90101929F018150C1F751
S11329909E012F5D3F4FAE014F5F5F4F88E0FA010C
S11329A00190AF01F90101929F018150C1F79E018D
S11329B0275F3F4FAE014F5D5F4F88E0FA01019002
S11329C0AF01F90101929F018150C1F79E012F5E71
S11329D03F4FAE01475F5F4F88E0FA010190AF01BE
S11329E0F90101929F018150C1F79E01275E3F4F7B
S11329F0AE014F5E5F4F88E0FA010190AF01F9012B
S1132A0001929F018150C1F748E050E0BE01675E2A
S1132A107F4FCD0106960E94191F892B09F07EC3B2
S1132A2003C0882309F47AC31D3008F477C3609087
S1132A301C0170901D01F3012281822F9927F6E079
S1132A4096958795FA95E1F7039719F468E070E095
S1132A5002C062E070E0822F99279695879596953B
S1132A60879583709070039719F488E090E002C012
S1132A7082E090E026E030E0620E731E40E050E019
S1132A8020E030E0F301E80FF91F8AEF9FEF680EB2
S1132A90791E05C08191480F511D2F5F3F4F2617A6
S1132AA03707C4F3F30163818FEF809369028FB713
S1132AB0F894782F20E030E0E7E2F1E08081918122
S1132AC08417950731F48281861709F41EC3209375
S1132AD069022F5F3F4F33962430310579F77FBF6A
S1132AE0909169023FB7F8949F3F21F080911901BA
S1132AF0891799F420911901822F9927FC01EE0F6F
S1132B00FF1FE80FF91FE95DFE4F51834083628385
S1132B102F5F2370209319010CC0892F9927FC0182
S1132B20EE0FFF1FE80FF91FE95DFE4F518340834D
S1132B306283832F99278FBF0FB7F8941127C3019E
S1132B400E94D200FC0190810FBFF30183A588236A
S1132B5009F4E0C29F3309F0DDC2878146812FB7B3
S1132B60F894332760910601709107012FBF9927CC
S1132B70982F88275527842B952B8617970761F064
S1132B80878126819927982F88273327822B932B97
S1132B908F5F9F4F09F0BEC2F3018385863009F031
S1132BA0B9C2BCE08B2E912C860C971C8485813095
S1132BB009F095C080910E01882309F090C081E04E
S1132BC080930E0187852089B188A2880091BC0179
S1132BD011279927982F88273327822B932B081B9B
S1132BE0190BB801882777FD8095982F0E94001D46
S1132BF017FF06C020E030E040E857E40E946E1C56
S1132C009B01AC010E94901D6B017C010091640248
S1132C1011278B2D9927982F88272A2D3327822B2C
S1132C20932B081B190BB801882777FD8095982FE3
S1132C300E94001D17FF06C020E030E040E857E482
S1132C400E946E1C9B01AC010E94901D9B01AC0173
S1132C50C701B6010E946E1C0E94F71D0E94D21C7F
S1132C608B0170937502609374020E94AB00AB01F8
S1132C70BC0188EE93E09801289F8001299F100DE4
S1132C80389F100D112422273327E1E0EE2E81E036
S1132C900E948505F301858526859927982F882725
S1132CA03327822B932B90936B0280936A02878540
S1132CB020899927982F88273327822B932B909349
S1132CC09D0180939C01818922899927982F8827C7
S1132CD03327822B932B9093A4018093A301F401B7
S1132CE08081823011F410920F01F40180818330CD
S1132CF009F097C08091000190910101892B09F49A
S1132D0090C080910F01853508F08BC083812481A8
S1132D10B580A6800091BC0111279927982F882798
S1132D203327822B932B081B190BB801882777FDB7
S1132D308095982F0E94001D17FF06C020E030E008
S1132D4040E857E40E946E1C9B01AC010E94901D58
S1132D506B017C010091640211278B2D9927982F18
S1132D6088272A2D3327822B932B081B190BB80194
S1132D70882777FD8095982F0E94001D17FF06C0B5
S1132D8020E030E040E857E40E946E1C9B01AC0157
S1132D900E94901D9B01AC01C701B6010E946E1CEC
S1132DA00E94F71D0E94D21C7B018C017093750256
S1132DB060937402F401818122819927982F8827D6
S1132DC03327822B932B90936B0280936A02B70173
S1132DD0882777FD8095982F0E94001DF7FE06C076
S1132DE020E030E040E857E40E946E1C2DEC3CECFF
S1132DF04CE45DE30E94901D20E030E04AE754E497
S1132E000E94901D0E94D21C5B016C010E94AB00C9
S1132E10AB01BC01E1E0EE2E9601850182E00E9447
S1132E208505F4018081843009F045C18091E00179
S1132E3081FF41C154010894A11CB11C81819501F9
S1132E402F5F3F4F3AA729A7F50121819927982F92
S1132E5088273327822B932B90936B0280936A02EB
S1132E608091930190919401892B09F046C080913F
S1132E70F6019091F701892B09F03FC0F40181819B
S1132E80F50121819927982F88273327822B932BAB
S1132E909093940180939301F40183812481B580FC
S1132EA0A6800091BC0111279927982F88273327E2
S1132EB0822B932B081B190BB801882777FD80956B
S1132EC0982F0E94001D17FF06C020E030E040E864
S1132ED057E40E946E1C9B01AC010E94901D6B0183
S1132EE07C010091640211278B2D9927982F882744
S1132EF02A2D3327822B932BBBC0F40153804480AB
S1132F00F581FCA7F401F681FBA70091F60110916D
S1132F10F701B801882777FD8095982F0E94001D3E
S1132F206B017C0117FF08C020E030E040E857E463
S1132F300E946E1C6B017C018091BC01282F3327F9
S1132F403EA72DA7852D9927982F8827242D332731
S1132F50822B932B0DA51EA5081B190BB8018827DE
S1132F6077FD8095982F0E94001D17FF06C020E072
S1132F7030E040E857E40E946E1C9B01AC010E94C3
S1132F80901D1B012C0180916402482F552758ABDA
S1132F904FA75CA5852F9927982F8827EBA52E2F5F
S1132FA03327822B932B0FA518A9081B190BB801E3
S1132FB0882777FD8095982F0E94001D17FF06C073
S1132FC020E030E040E857E40E946E1C9B01AC0115
S1132FD00E94901D9B01AC01C201B1010E946E1CB4
S1132FE00E94F71D9B01AC01C701B6010E948C1D14
S1132FF018160CF060C0F5018081E9A5FAA52081BE
S11330009927982F88273327822B932B9093940109
S113301080939301F40183812481B580A68099274C
S1133020982F88273327822B932B0DA51EA5081BC9
S1133030190BB801882777FD8095982F0E94001DF1
S113304017FF06C020E030E040E857E40E946E1C01
S11330509B01AC010E94901D6B017C018B2D992773
S1133060982F88272A2D3327822B932B0FA518A955
S1133070081B190BB801882777FD8095982F0E94AB
S1133080001D17FF06C020E030E040E857E40E942E
S11330906E1C9B01AC010E94901D9B01AC01C701F9
S11330A0B6010E946E1C0E94F71D0E94D21C7093F0
S11330B0F7016093F601F4018081853059F5609140
S11330C00F01878120859927582F44273327422BC6
S11330D0532BCA01860F911D84369105C0F084E6F6
S11330E080930F018781208540911E0150911F011B
S11330F09927982F88273327822B932B480F591F02
S113310050931F0140931E0105C07FBF03C0640F8D
S113311060930F0170921D0160921C018FB7F894A7
S1133120992710928F018FBF0E94E20758C0909197
S11331309B0180910901981709F451C090930901EA
S11331409923D1F400911A0110911B016091B101EE
S1133150C8010E94E008482F5527442309F43FC0C2
S11331608FEF8093090160911A0170911B01F8019E
S113317083850E94C30A33C08FEF809309012FC057
S113318020916602812F8223C1F0E92FFF27EE0FE1
S1133190FF1FE854FE4F4081518111821082812F1C
S11331A08095282320936602992339F463E0CA01A9
S11331B00E94360A110F91E0E3CF9F5F983078F4B4
S11331C0110FDECF80910C01E82FFF27EE0FFF1FB8
S11331D0E854FE4F6081718141E00E94830AE096C9
S11331E00FB6F894DEBF0FBECDBFDF91CF911F9114
S11331F00F91FF90EF90DF90CF90BF90AF909F9092
S11332008F907F906F905F904F903F902F90089594
S1133210809161028F3FB1F0282F3327F901E35CDD
S1133220FE4F8081809361028F3F11F4809372027C
S11332308FEF80832F3F31F0822F0E94C71081E0EF
S113324090E0089580E090E008951F93CF93DF937A
S1133250CDB7DEB7E0970FB6F894DEBF0FBECDBF93
S11332601FB7F89444E150E06FEF70E08DE391E014
S11332700E94261F8FEF809361028093720281E087
S11332808EBD88E080BF83E083BF8CB59DB54AE7DF
S11332902CB53DB52817390708F44150442311F0E3
S11332A0C901F6CF92B782B78917E9F32CB53DB5BA
S11332B092B782B78917E9F38CB59DB5821B930B3E
S11332C04096B5E096958795BA95E1F79093630299
S11332D08093620213BE83B78EBD8EB580BF12BECB
S11332E01DBC1CBC8FEF86BF86B780937C0080B763
S11332F0992787709070892BD1F7D29AD19AD09A56
S1133300DA9AD99AD89A15BA8FEF84BBD498DC98F4
S11333101DBC1CBC87B7846087BF8EB5887F846062
S11333208EBD0E9408198823E1F78FEF809359011D
S1133330E7E2F1E08FEF9FEF91838083128233966F
S113334021E0E333F207C1F70E941F0260930702F2
S11333508CE292E090931D0180931C018E98B89AA0
S11333608C988FEF8093A2011092F1011092F201D8
S11333701092F3011092F401B89AD69AD59A8FB7A5
S1133380F894992720910601309107018FBF30935B
S1133390AA012093A9010E94480429A73AA74BA790
S11333A05CA76DA77EA78FA798ABDE019196FE015F
S11333B0B99688E001900D928150E1F7DE015196B3
S11333C0FE01B19688E001900D928150E1F7DE0193
S11333D05996FE01719688E001900D928150E1F7B3
S11333E0A9EFB1E0FE01799688E001900D92815039
S11333F0E1F78091080199279093910180939001BE
S11334008FE18093EC018AE1809301020E944804D9
S113341029A73AA74BA75CA76DA77EA78FA798AB50
S1133420DE019196FE01B99688E001900D928150DB
S1133430E1F7DE011196FE01B19688E001900D924C
S11334408150E1F7DE011996FE01319688E0019082
S11334500D928150E1F7A9EFB1E0FE01399688E0C1
S113346001900D928150E1F7A9EFB1E0FD0137968B
S11334709C9180818D939083319781E0EC3FF80794
S1133480B9F781E08093560110926C028093920107
S11334901092F80180B7886080BF8BE083BF86EE0E
S11334A081BF87B7826087BF0E9493038091000128
S11334B0909101010196AA27BB27809397019093CD
S11334C09801A0939901B0939A010E940819882346
S11334D0E1F7812F99278FBF78940E941F02DC01A6
S11334E0CB016EE10E946E1E9093BC010E941F02EC
S11334F0DC01CB016EE10E946E1E909364020E9477
S11335008F108FB7F894482F55274BC087B799274A
S113351083709070892B19F4E5E0F0E013C080B754
S1133520992787709070892BD1F781B792B7891B3F
S11335308C3030F082B7853F18F4E3E0F0E002C04D
S1133540E2E0F0E087B7887BC1F480917D008B7F57
S1133550A1F46E9912C08AB190919A00892B887156
S113356061F48091740082FD08C0379B03C081E040
S113357090E005C085E090E002C080E090E025B7CF
S11335808E1708F4E82FFF27EC54FF4FE491237EB5
S11335902062E22BE5BF78948895F89485B78F7DF7
S11335A085BF809161028F3F09F4B0CF282F332764
S11335B0F901E35CFE4F8081809361028F3F11F437
S11335C0809372028FEF80832F3F09F49FCF4FBF08
S11335D0822F0E94C71095CFACE2B0E0E2EFFAE18F
S11335E00C94E21E222E332E442E552E662E772E58
S11335F0882E992EFE013196A8E01192AA95E9F73A
S113360029823A824B825C826D827E828F82988686
S1133610FE013996B8E01192BA95E9F7A986BA86FF
S1133620CB86DC86ED86FE860F87188B89819A818E
S1133630AB81BC8189A79AA7ABA7BCA77C018D01EC
S11336408FEF9FEFA0E0B0E0E822F9220A231B23CA
S113365089A59AA5ABA5BCA51D014424552489853B
S11336609A85AB85BC858DA39EA3AFA3B8A75C0147
S11336706D018FEF9FEFA0E0B0E0A822B922CA222B
S1133680DB228DA19EA1AFA1B8A53D018824992478
S1133690C801B701A60195010E94C31E69A37AA3BC
S11336A08BA39CA3C801B701A40193010E94C31E6C
S11336B07B018C01C201B101A60195010E94C31EC8
S11336C05B016C01C201B101A40193010E94C31EFC
S11336D03B014C01EA0CFB1C0C1D1D1D89A19AA188
S11336E0ABA1BCA19D01442755272E0D3F1D401FB2
S11336F0511F2A153B054C055D0540F480E090E020
S1133700A1E0B0E0680E791E8A1E9B1ECA01AA279A
S1133710BB27860D971DA81DB91D8D8F9E8FAF8F5A
S1133720B8A3A9013327222789A19AA1ABA1BCA1DF
S1133730A070B070280F391F4A1F5B1F298F3A8F62
S11337404B8F5C8FA98CBA8CCB8CDC8CED8CFE8C73
S11337500F8D18A1FE01719698E011929A95E9F7E0
S1133760ED8AFE8A0F8B188F2D813E814F815885FB
S11337706DA17EA18FA198A50E94C31E3B014C019F
S11337802D853E854F85588969A57AA58BA59CA56D
S11337900E94C31E2D893E894F89588D260F371FDD
S11337A0481F591F260D371D481D591D2D8B3E8B53
S11337B04F8B588F6D887E888F88988C2A2D3B2D4F
S11337C04C2D5D2D662D772D882D992DE2E1AC963B
S11337D00C94FE1EA0E1B0E0E0EFFBE10C94E21ECD
S11337E0222E332E442E552E662E772E882E992E79
S11337F0002309F466C088E0FE01319611928A958F
S1133800E9F729833A834B835C836D837E838F82BC
S11338109887E0E2E01B1E16CCF52D813E814F8196
S11338205885602F772767FD7095DA01C901062E48
S113383004C0B695A795979587950A94D2F78D8776
S11338409E87AF87B88B04C0220F331F441F551FB8
S1133850EA95D2F789819A81AB81BC8104C0B6957F
S1133860A795979587956A95D2F7282B392B4A2BDC
S11338705B2B29873A874B875C8729843A844B845E
S11338805C846D847E848F8498881BC01D861E860C
S11338901F86188A2E2F332727FD309530952195C2
S11338A03F4F8D819E81AF81B88504C0B695A795A1
S11338B0979587952A95D2F789879A87AB87BC878E
S11338C0DCCF222D332D442D552D662D772D882DBB
S11338D0992DE2E160960C94FE1E5058BB27AA274E
S11338E00ED0E0C0D1D030F0D6D020F031F49F3FDC
S11338F011F41EF4C6C00EF4E095E7FBBCC0E92F3A
S1133900E2D080F3BA17620773078407950718F0AB
S113391071F49EF5FAC00EF4E0950B2EBA2FA02D8B
S11339200B01B90190010C01CA01A0011124FF2768
S1133930591B99F0593F50F4503E68F11A16F04063
S1133940A22F232F342F4427585FF3CF4695379562
S11339502795A795F0405395C9F77EF41F16BA0B27
S1133960620B730B840BBAF09150A1F0FF0FBB1FD5
S1133970661F771F881FC2F70EC0BA0F621F731F1E
S1133980841F48F4879577956795B795F7959E3F7B
S113399008F0B3CF9395880F08F09927EE0F979509
S11339A08795089598D088F09F5790F0B92F99275C
S11339B0B751A0F0D1F0660F771F881F991F1AF036
S11339C0BA95C9F712C0B13081F09FD0B1E0089523
S11339D09CC0672F782F8827B85F39F0B93FCCF3A4
S11339E0869577956795B395D9F73EF4909580952C
S11339F0709561957F4F8F4F9F4F0895E89409C04C
S1133A0097FB3EF490958095709561957F4F8F4F0D
S1133A109F4F9923A9F0F92F96E9BB279395F69523
S1133A20879577956795B795F111F8CFFAF4BB0FA1
S1133A3011F460FF1BC06F5F7F4F8F4F9F4F16C005
S1133A40882311F096E911C0772321F09EE8872F8F
S1133A50762F05C0662371F096E8862F70E060E04B
S1133A602AF09A95660F771F881FDAF7880F9695C4
S1133A70879597F9089597F99F6780E870E060E06B
S1133A8008959FEF80EC089500240A9416161706F3
S1133A9018060906089500240A941216130614063B
S1133AA005060895092E0394000C11F4882352F09E
S1133AB0BB0F40F4BF2B11F460FF04C06F5F7F4F56
S1133AC08F4F9F4F089557FD9058440F551F59F03D
S1133AD05F3F71F04795880F97FB991F61F09F3FF7
S1133AE079F087950895121613061406551FF2CF20
S1133AF04695F1DF08C0161617061806991FF1CF70
S1133B0086957105610508940895E894BB27662796
S1133B107727CB0197F90895A8D008F48FEF08957B
S1133B200BD0C0CFB1DF28F0B6DF18F0952309F031
S1133B30A2CFA7CF1124EACFC6DFA0F3959FD1F37C
S1133B40950F50E0551F629FF001729FBB27F00D47
S1133B50B11D639FAA27F00DB11DAA1F649F66279C
S1133B60B00DA11D661F829F2227B00DA11D621FEB
S1133B70739FB00DA11D621F839FA00D611D221FA5
S1133B80749F3327A00D611D231F849F600D211D89
S1133B90822F762F6A2F11249F5750408AF0E1F02C
S1133BA088234AF0EE0FFF1FBB1F661F771F881F75
S1133BB091505040A9F79E3F510570F05CCFA6CFBD
S1133BC05F3FECF3983EDCF3869577956795B79560
S1133BD0F795E7959F5FC1F7FE2B880F911D96958A
S1133BE0879597F9089511F40EF44BCF62C073DFF3
S1133BF0D0F39923D9F3CEF39F57550B87FF67D0A2
S1133C000024A0E640EA900180585695979528F440
S1133C10805C660F771F881F20F026173707480738
S1133C2030F4621B730B840B202931294A2BA6958F
S1133C3017940794202531254A2758F7660F771FD4
S1133C40881F20F026173707480730F4620B730BE0
S1133C50840B200D311D411DA09581F7B901842FDE
S1133C609158880F969587950895990F0008550FD8
S1133C70AA0BE0E8FEEF16161706E807F907C0F0EE
S1133C8012161306E407F50798F0621B730B840BF6
S1133C90950B39F40A2661F0232B242B252B21F4D0
S1133CA008950A2609F4A140A6958FEF811D811D70
S1133CB008959F3F31F0915020F48795779567954B
S1133CC0B795880F911D9695879597F9089591500A
S1133CD05040660F771F881FD2F70895991B79E02B
S1133CE004C0991F961708F0961B881F7A95C9F788
S1133CF080950895AA1BBB1B51E107C0AA1FBB1FD7
S1133D00A617B70710F0A61BB70B881F991F5A9563
S1133D10A9F780959095BC01CD01089597FB092ED4
S1133D2007260AD077FD04D0E5DF06D000201AF478
S1133D30709561957F4F0895F6F7909581959F4F03
S1133D400895A1E21A2EAA1BBB1BFD010DC0AA1FD8
S1133D50BB1FEE1FFF1FA217B307E407F50720F0F0
S1133D60A21BB30BE40BF50B661F771F881F991F6B
S1133D701A9469F760957095809590959B01AC01B4
S1133D80BD01CF010895629FD001739FF001829F0E
S1133D90E00DF11D649FE00DF11D929FF00D839FD6
S1133DA0F00D749FF00D659FF00D9927729FB00D73
S1133DB0E11DF91F639FB00DE11DF91FBD01CF0186
S1133DC0112408952F923F924F925F926F927F92A7
S1133DD08F929F92AF92BF92CF92DF92EF92FF9217
S1133DE00F931F93CF93DF93CDB7DEB7CA1BDB0BC3
S1133DF00FB6F894DEBF0FBECDBF09942A88398868
S1133E0048885F846E847D848C849B84AA84B9846E
S1133E10C884DF80EE80FD800C811B81AA81B9817A
S1133E20CE0FD11D0FB6F894DEBF0FBECDBFED018E
S1133E300895FB01DC0104C08D910190801921F4E7
S1133E4041505040C8F7881B990B0895DC0101C00C
S10F3E506D9341505040E0F70895FFCFFF
S1113E5C0100FFFFFFFF010022FFFFFF010036
S9030000FC
